:020000040800F2
:1000000000280020051200088D1100089511000835
:100010009D110008A5110008AD11000800000000A6
:10002000000000000000000000000000B511000802
:10003000C111000800000000CD110008D91100080E
:100040004D1200084D1200084D1200084D12000814
:100050004D1200084D1200084D1200084D12000804
:100060004D1200084D1200084D1200084D120008F4
:100070004D1200084D1200084D1200084D120008E4
:100080004D1200084D1200084D1200084D120008D4
:100090004D1200084D1200084D1200084D120008C4
:1000A0004D1200084D1200084D1200084D120008B4
:1000B000E51100084D120008000000004D12000874
:1000C0004D12000800000000000000004D12000862
:1000D000000000004D1200084D1200080000000052
:1000E0004D1200084D1200084D12000800000000DB
:1000F0000000000000000000000000000000000000
:0C01000000000000000000005FF808F1A3
:10010C0010B5054C237833B9044B13B10448AFF345
:10011C0000800123237010BD20000020000000008F
:10012C005428000808B5034B1BB103490348AFF32F
:10013C00008008BD000000002400002054280008A6
:10014C0080B500AF00F08EFE002000F00BF801220D
:10015C004FF48071024801F078FB00BF80BD00BFF6
:10016C000008014080B582B000AF0346FB71FB79FB
:10017C00032B7BD801A252F823F000BF9901000891
:10018C00D101000809020008410200084FF47A71FD
:10019C00012000F035FF384B1B68384A1360384B90
:1001AC001B68384A1360384B01221A600121002069
:1001BC0000F074FE0321012000F070FE334B00228E
:1001CC001A7054E04FF4FA71012000F019FF2A4B19
:1001DC001B682A4A1360284B1B682A4A13602A4B57
:1001EC0002221A600021002000F058FE002101209C
:1001FC0000F054FE254B01221A7038E04FF4FA71CE
:10020C00012000F0FDFE224B1B681C4A1360204BA2
:10021C001B681C4A13601C4B03221A60002100202F
:10022C0000F03CFE0021012000F038FE174B0222AA
:10023C001A701CE04FF4FA71012000F0E1FE104B33
:10024C001B680E4A13600E4B1B680E4A13600E4B54
:10025C0004221A600021002000F020FE0021012061
:10026C0000F01CFE094B03221A7000E000BF00BF17
:10027C000837BD4680BD00BFB4000020A40000209C
:10028C00BC000020A8000020AC0000203C00002096
:10029C00B800002080B500AF6B4B1B78032B00F22D
:1002AC00898201A252F823F0C50200081F0400083D
:1002BC006305000887060008012000F0F5FE0346E0
:1002CC00012B40F095804FF47A71012000F098FEDC
:1002DC005E4B1B78032B2AD0032B3ADC012B02D06C
:1002EC00022B12D035E05A4B1B68013B584A136065
:1002FC00574B1B68002B2EDC564B1B68544A136063
:10030C000321002000F0CAFD25E0514B1B68013B86
:10031C004F4A13604E4B1B68002B1EDC4E4B1B6868
:10032C004B4A13600121002000F0B8FD15E0484B4A
:10033C001B68013B464A1360454B1B68002B0EDCC7
:10034C00464B1B68424A13600221002000F0A6FDB8
:10035C0005E000BF04E000BF02E000BF00E000BF0A
:10036C003A4B5B78032B2AD0032B3ADC012B02D0BF
:10037C00022B12D035E03A4B1B68013B384A136014
:10038C00374B1B68002B2EDC324B1B68344A136036
:10039C000321012000F082FD25E0314B1B68013B5D
:1003AC002F4A13602E4B1B68002B1EDC2A4B1B683C
:1003BC002B4A13600121012000F070FD15E0284B41
:1003CC001B68013B264A1360254B1B68002B0EDC77
:1003DC00224B1B68224A13600221012000F05EFDB3
:1003EC0005E000BF04E000BF02E000BF00E000BF7A
:1003FC00002000F091FA0346002B00F0DD81012073
:10040C00FFF7B0FE01224FF48071164801F01DFA7F
:10041C00D2E1012000F048FE0346012B32D10B4BF8
:10042C001B78002B02D0012B1ED02BE04FF4FA715D
:10043C00012000F0E5FD0121002000F02FFD01213D
:10044C00012000F02BFD1DE03C000020C00000202E
:10045C00A4000020BC000020B4000020B800002044
:10046C00A8000020000801404FF4FA71012000F0B0
:10047C00C7FD0021002000F011FD0021012000F03B
:10048C000DFD00BF002000F047FA0346002B08D0FA
:10049C000220FFF767FE01224FF48071844801F0BF
:1004AC00D4F9012000F038FA0346002B1DD00122AC
:1004BC004FF480717E4801F0C8F97E4B1B68013304
:1004CC007C4A13607B4B1B68632B02DD794B01224A
:1004DC001A60794B1B680133774A1360764B1B68A3
:1004EC00632B02DD744B01221A60022000F014FA17
:1004FC000346002B1DD001224FF480716C4801F093
:10050C00A4F96C4B1B68013B6A4A1360694B1B686E
:10051C00002B02DC674B63221A60674B1B68013BA4
:10052C00654A1360644B1B68002B02DC624B632230
:10053C001A60032000F0F0F90346002B00F03E8116
:10054C0000224FF480715A4801F07FF9594B1B6817
:10055C005A4A136032E1012000F0A6FD0346012B3C
:10056C0022D1574B1B78002B02D0022B0ED01BE054
:10057C004FF4FA71012000F043FD0221002000F03D
:10058C008DFC0221012000F089FC0DE04FF4FA7182
:10059C00012000F035FD0021002000F07FFC00213F
:1005AC00012000F07BFC00BF002000F0B5F90346F1
:1005BC00002B08D001224FF480713D4801F045F921
:1005CC000320FFF7CFFD012000F0A6F90346002B16
:1005DC001DD001224FF48071354801F036F9354BAE
:1005EC001B680133334A1360324B1B68632B02DDEB
:1005FC00304B01221A60304B1B6801332E4A1360BA
:10060C002D4B1B68632B02DD2B4B01221A60022041
:10061C0000F082F90346002B1DD001224FF48071AB
:10062C00234801F012F9234B1B68013B214A13604C
:10063C00204B1B68002B02DC1E4B63221A601E4BE6
:10064C001B68013B1C4A13601B4B1B68002B02DC14
:10065C00194B63221A60032000F05EF90346002B4D
:10066C0000F0AE8000224FF48071114801F0EDF8DB
:10067C00104B1B68134A1360A2E0012000F014FD1C
:10068C000346012B2ED10E4B1B78002B02D0032BD3
:10069C001AD027E04FF4FA71012000F0B1FC0321CD
:1006AC00002000F0FBFB0321012000F0F7FB19E018
:1006BC0000080140A4000020A8000020B400002085
:1006CC00C0000020B80000204FF4FA71012000F0A7
:1006DC0097FC0021002000F0E1FB0021012000F03C
:1006EC00DDFB00BF002000F017F90346002B08D0FB
:1006FC0001224FF48071354801F0A7F80020FFF774
:10070C0031FD012000F008F90346002B1DD0012219
:10071C004FF480712D4801F098F82D4B1B68013374
:10072C002B4A13602A4B1B68632B02DD284B0122DA
:10073C001A60284B1B680133264A1360254B1B6833
:10074C00632B02DD234B01221A60022000F0E4F837
:10075C000346002B1DD001224FF480711B4801F081
:10076C0074F81B4B1B68013B194A1360184B1B6830
:10077C00002B02DC164B63221A60164B1B68013BE4
:10078C00144A1360134B1B68002B02DC114B6322C1
:10079C001A60032000F0C0F80346002B12D0002290
:1007AC004FF48071094801F050F8094B1B680A4A54
:1007BC00136007E000BF06E000BF04E000BF02E0EA
:1007CC0000BF00E000BF00BF80BD00BF00080140BB
:1007DC00A4000020A8000020BC00002080B582B03E
:1007EC0000AF00237B607DE0434A7B68134419789B
:1007FC00424A7B6813440A461A70414A7B68134488
:10080C0019783D4A7B6813440A461A703D4A7B6846
:10081C0032F8133019463C4801F000F803461946EB
:10082C00374A7B6813440A461A70354A7B6813446E
:10083C001A7831497B680B441B789A424FD1304A65
:10084C007B6813441A782D497B680B441B789A42B9
:10085C0045D12E4A7B6813441A7829497B680B448E
:10086C001B789A4219D0264A7B6813441978274A78
:10087C007B6813440A461A70244A7B6813441B781D
:10088C00002B2CD1224A7B68134401221A70214A76
:10089C007B68642122F8131021E01C4A7B68134406
:1008AC001B78002B1BD11B4A7B6832F913309BB28F
:1008BC00013B9BB219B2174A7B6822F81310154AF8
:1008CC007B6832F91330002B09DC114A7B68134426
:1008DC0001221A700F4A7B68322122F813107B68B0
:1008EC0001337B607B68032B7FF77EAF00BF00BFBB
:1008FC000837BD4680BD00BF480000204C000020DA
:10090C004400002000000020000C014040000020AA
:10091C00500000205400002080B483B000AF7860F9
:10092C007B68002B02DB7B68032B01DD00230DE0D1
:10093C00094A7B6813441B78012B06D1064A7B6855
:10094C00134400221A70012300E0002318460C37D0
:10095C00BD4680BC704700BF5000002080B500AF82
:10096C0000F070FC00F020F800F0A6F800F058F849
:10097C000C4801F0B1FB00F093F9FFF7E1FB0A2101
:10098C00002000F03DFB002000F08EFB0346012B05
:10099C0005D10A21002000F033FB00F0B5F9FFF778
:1009AC0079FCF0E75C00002080B590B000AF07F157
:1009BC00180328220021184601F01AFF3B1D0022C3
:1009CC001A605A609A60DA601A610223BB610123D3
:1009DC00BB621023FB6200237B6307F118031846EC
:1009EC0000F04CFF0346002B01D000F0D3F80F238E
:1009FC007B600023BB600023FB6000233B61002372
:100A0C007B613B1D0021184601F0BAF90346002B0F
:100A1C0001D000F0BFF800BF4037BD4680BD0000DC
:100A2C0080B586B000AF07F1080300221A605A6047
:100A3C009A60DA603B4600221A605A601D4B4FF0F8
:100A4C0080421A601B4B41F63F725A60194B0022D0
:100A5C009A60184B0922DA60164B00221A61154B6A
:100A6C0000229A61134801F0E7FA0346002B01D0EB
:100A7C0000F090F84FF48053BB6007F1080319465F
:100A8C000C4801F065FC0346002B01D000F082F805
:100A9C0000233B6000237B603B461946054801F070
:100AAC003DFE0346002B01D000F074F800BF183750
:100ABC00BD4680BD5C00002080B586B000AF07F15C
:100ACC00080300221A605A609A60DA60284B9B690E
:100ADC00274A43F004039361254B9B6903F00403FD
:100AEC007B607B68224B9B69214A43F0080393612E
:100AFC001F4B9B6903F008033B603B68002243F6E5
:100B0C00FE711C4800F0A1FE00224FF47C511A48E3
:100B1C0000F09BFE43F6FE73BB600123FB600023D9
:100B2C003B6102237B6107F108031946114800F071
:100B3C00F9FC0F23BB600023FB6001233B6107F131
:100B4C00080319460C4800F0EDFC4FF47C53BB60D5
:100B5C000123FB6000233B6102237B6107F1080347
:100B6C001946054800F0DEFC00BF1837BD4680BDB5
:100B7C000010024000080140000C014080B582B01A
:100B8C0000AF786000F060FAFFF728FE00BF08376E
:100B9C00BD4680BD80B400AF72B600BF00BFFDE79C
:100BAC0080B483B000AF78607B68092B70D801A249
:100BBC0052F823F0E90B0008FB0B00080D0C0008A1
:100BCC001F0C0008310C0008430C0008550C0008E1
:100BDC00670C0008790C00088B0C00082F4BDB68A5
:100BEC0023F0FE032D4A43F08003D36051E02B4BDE
:100BFC00DB6823F0FF03294A43F0F303D36048E09A
:100C0C00264BDB6823F0FF03244A43F04903D360EF
:100C1C003FE0224BDB6823F0FF03204A43F06103E3
:100C2C00D36036E01D4BDB6823F0FF031B4A43F017
:100C3C003303D3602DE0194BDB6823F0FF03174A15
:100C4C0043F02503D36024E0144BDB6823F0FF034F
:100C5C00124A43F00503D3601BE0104BDB6823F012
:100C6C00FF030E4A43F0F103D36012E00B4BDB6839
:100C7C0023F0FF03094A43F00103D36009E0074B5B
:100C8C00DB6823F0FF03054A43F02103D36000E047
:100C9C0000BF00BF0C37BD4680BC70470008014048
:100CAC0080B500AF144B00221A60144B00221A605E
:100CBC00134B01221A6000224FF40051114800F02E
:100CCC00C4FD00224FF480510E4800F0BEFD0022FE
:100CDC004FF400610B4800F0B8FD00224FF4806126
:100CEC00084800F0B2FD00224FF40071054800F0F6
:100CFC00ACFD00BF80BD00BFA4000020A8000020F8
:100D0C00AC0000200008014080B500AF00224FF479
:100D1C0000514E4800F099FD00224FF480514B4891
:100D2C0000F093FD00224FF40061484800F08DFD67
:100D3C0000224FF48061454800F087FD00224FF4FB
:100D4C000071424800F081FD414B1B68042B7AD89E
:100D5C0001A252F823F000BF790D0008A30D000882
:100D6C00D70D0008010E0008350E000801224FF4C3
:100D7C000071364800F069FD364B1B68364A82FB21
:100D8C0003129210DB17D31A1846FFF709FF304BEA
:100D9C0001221A6058E001224FF480612B4800F0C8
:100DAC0054FD2C4B1A682C4B83FB02139910D31750
:100DBC00C91A0B469B000B445B00D11A0846FFF77F
:100DCC00EFFE234B02221A603EE001224FF4006139
:100DDC001E4800F03AFD214B1B681F4A82FB031290
:100DEC009210DB17D31A1846FFF7DAFE184B0322C2
:100DFC001A6029E001224FF48051144800F025FDBF
:100E0C00164B1A68144B83FB02139910D317C91A8B
:100E1C000B469B000B445B00D11A0846FFF7C0FE43
:100E2C000B4B04221A600FE001224FF400510748CB
:100E3C0000F00BFD0A4B1B681846FFF7B1FE044B84
:100E4C0000221A6000E000BF00BF80BD0008014016
:100E5C00B0000020A400002067666666A800002091
:100E6C00AC00002080B500AF094B05221A60094B7D
:100E7C0002221A60084B03221A600021002000F0A5
:100E8C000DF80021012000F009F800BF80BD00BF63
:100E9C00B4000020B8000020BC00002080B582B057
:100EAC0000AF78600B46FB707B68002BC0F298801B
:100EBC007B68012B00F39480FB78032B00F292806B
:100ECC0001A252F823F000BFE50E0008270F00081E
:100EDC00690F0008AB0F0008444A7B6832F81330E6
:100EEC0000221946424800F0B0FC424A7B6832F8B6
:100EFC001330002219463E4800F0A7FC3E4A7B689E
:100F0C0032F8133000221946394800F09EFC3B4A57
:100F1C007B68134400221A7065E0344A7B6832F80F
:100F2C00133001221946324800F08FFC314A7B689D
:100F3C0032F81330002219462D4800F086FC2E4A58
:100F4C007B6832F8133000221946294800F07DFCEA
:100F5C002A4A7B68134401221A7044E0234A7B68B6
:100F6C0032F8133000221946214800F06EFC214A59
:100F7C007B6832F81330012219461D4800F065FCDD
:100F8C001D4A7B6832F8133000221946184800F0CD
:100F9C005CFC1A4A7B68134402221A7023E0134A41
:100FAC007B6832F8133000221946114800F04DFCD2
:100FBC00104A7B6832F81330002219460C4800F0B6
:100FCC0044FC0D4A7B6832F813300122194608485C
:100FDC0000F03BFC094A7B68134403221A7002E0C0
:100FEC0000BF00E000BF0837BD4680BD08000020F0
:100FFC00000C01400C00002010000020C00000205C
:10100C0080B483B000AF786039607B68032B0FDC51
:10101C000A4A7B68002142F823103B68084A82FB8D
:10102C0003129210DB17D21A06497B6841F8232071
:10103C0000BF0C37BD4680BC704700BFD4000020F9
:10104C0067666666C400002080B483B000AF0023DE
:10105C007B601CE0124A7B6852F82330002B13DBB8
:10106C000F4A7B6852F823305A1E0D497B6841F8B1
:10107C0023200B4A7B6852F82330002B04DC094AEE
:10108C007B68012142F823107B6801337B607B680D
:10109C00032BDFDD00BF00BF0C37BD4680BC7047A3
:1010AC00C4000020D400002080B483B000AF78606E
:1010BC007B68032B04DC064A7B6852F8233001E082
:1010CC004FF0FF3318460C37BD4680BC704700BF4D
:1010DC00D400002080B485B000AF154B9B69144A36
:1010EC0043F001039361124B9B6903F00103BB6056
:1010FC00BB680F4BDB690E4A43F08053D3610C4B3A
:10110C00DB6903F080537B607B680A4B5B68FB6098
:10111C00FB6823F0E063FB60FB6843F08063FB60DB
:10112C00044AFB68536000BF1437BD4680BC70474F
:10113C00001002400000014080B584B000AF786020
:10114C007B681B68B3F1804F13D10C4BDB690B4AE6
:10115C0043F00103D361094BDB6903F00103FB602E
:10116C00FB68002200211C2000F0A5F91C2000F0D7
:10117C00BEF900BF1037BD4680BD00BF0010024055
:10118C0080B400AF00BFFDE780B400AF00BFFDE747
:10119C0080B400AF00BFFDE780B400AF00BFFDE737
:1011AC0080B400AF00BFFDE780B400AF00BFBD4608
:1011BC0080BC704780B400AF00BFBD4680BC704798
:1011CC0080B400AF00BFBD4680BC704780B500AF97
:1011DC0000F07EF800BF80BD80B500AF024800F083
:1011EC00C7FF00BF80BD00BF5C00002080B400AF13
:1011FC0000BFBD4680BC7047FFF7F8FF0B480C4999
:10120C000C4A002302E0D458C4500433C4188C4256
:10121C00F9D3094A094C002301E013600432A242BD
:10122C00FBD301F0EDFAFFF799FB704700000020AB
:10123C00200000209828000820000020E800002052
:10124C00FEE7000080B500AF084B1B68074A43F06F
:10125C0010031360032000F023F90F2000F008F8AE
:10126C00FFF738FF0023184680BD00BF0020024066
:10127C0080B582B000AF7860124B1A68124B1B78A5
:10128C0019464FF47A73B3FBF1F3B2FBF3F3184640
:10129C0000F03BF90346002B01D001230EE07B68E4
:1012AC000F2B0AD8002279684FF0FF3000F003F9B9
:1012BC00064A7B681360002300E0012318460837B8
:1012CC00BD4680BD140000201C000020180000202A
:1012DC0080B400AF054B1B781A46054B1B681344B2
:1012EC00034A136000BFBD4680BC70471C00002041
:1012FC00E400002080B400AF024B1B681846BD46CA
:10130C0080BC7047E400002080B485B000AF7860EA
:10131C007B6803F00703FB600C4BDB68BB60BA68AF
:10132C004FF6FF031340BB60FB681A02BB68134304
:10133C0043F0BF6343F40033BB60044ABB68D36023
:10134C0000BF1437BD4680BC704700BF00ED00E005
:10135C0080B400AF044BDB681B0A03F0070318468C
:10136C00BD4680BC704700BF00ED00E080B483B088
:10137C0000AF0346FB7197F90730002B0BDBFB79B1
:10138C0003F01F02064997F907305B09012000FAA8
:10139C0002F241F8232000BF0C37BD4680BC7047D9
:1013AC0000E100E080B483B000AF03463960FB710C
:1013BC0097F90730002B0ADB3B68DAB20C4997F936
:1013CC0007301201D2B20B4483F800230AE03B68C9
:1013DC00DAB20849FB7903F00F03043B1201D2B2D5
:1013EC000B441A7600BF0C37BD4680BC704700BF5B
:1013FC0000E100E000ED00E080B489B000AFF860DF
:10140C00B9607A60FB6803F00703FB61FB69C3F109
:10141C000703042B28BF0423BB61FB690433062B91
:10142C0002D9FB69033B00E000237B614FF0FF32E4
:10143C00BB6902FA03F3DA43BB681A407B699A4032
:10144C004FF0FF317B6901FA03F3D9437B680B4002
:10145C00134318462437BD4680BC704780B582B014
:10146C0000AF78607B68013BB3F1807F01D301232F
:10147C000FE00A4A7B68013B53600F214FF0FF30AD
:10148C00FFF790FF054B00229A60044B07221A606D
:10149C00002318460837BD4680BD00BF10E000E0B1
:1014AC0080B582B000AF78607868FFF72DFF00BF81
:1014BC000837BD4680BD80B586B000AF0346B96025
:1014CC007A60FB7300237B61FFF742FF78617A68D7
:1014DC00B9687869FFF790FF024697F90F3011460B
:1014EC001846FFF75FFF00BF1837BD4680BD80B5BB
:1014FC0082B000AF0346FB7197F907301846FFF72F
:10150C0035FF00BF0837BD4680BD80B582B000AF47
:10151C0078607868FFF7A2FF034618460837BD4687
:10152C0080BD000080B48BB000AF786039600023C0
:10153C007B6200233B6261E101227B6A02FA03F3C6
:10154C00FB613B681B68FA691340BB61BA69FB69B4
:10155C009A4240F050813B685B68974A93425ED058
:10156C00954A934275D8954A934258D0934A9342E0
:10157C006FD8934A934252D0914A934269D8914A78
:10158C0093424CD08F4A934263D88F4A934246D0B1
:10159C008D4A93425DD8122B2AD8122B59D801A20E
:1015AC0052F823F02B160008051600081716000831
:1015BC00591600085F1600085F1600085F16000831
:1015CC005F1600085F1600085F1600085F1600081B
:1015DC005F1600085F1600085F1600085F1600080B
:1015EC005F1600085F1600080D160008211600088B
:1015FC00764A934213D02CE03B68DB683B6229E0CF
:10160C003B68DB6804333B6224E03B68DB680833EF
:10161C003B621FE03B68DB680C333B621AE03B68C3
:10162C009B68002B02D104233B6213E03B689B6850
:10163C00012B05D108233B627B68FA691A6109E02A
:10164C0008233B627B68FA695A6103E000233B6222
:10165C0000E000BFBB69FF2B01D87B6801E07B6811
:10166C0004337B61BB69FF2B02D87B6A9B0002E0D1
:10167C007B6A083B9B003B617B691A680F213B69C5
:10168C0001FA03F3DB431A40396A3B6901FA03F3AD
:10169C001A437B691A603B685B6803F08053002B2C
:1016AC0000F0A9804A4B9B69494A43F001039361BE
:1016BC00474B9B6903F00103BB60BB68454A7B6ADF
:1016CC009B08023352F82330FB607B6A03F0030360
:1016DC009B000F2202FA03F3DB43FA681340FB6012
:1016EC007B683D4A93420DD07B683C4A934207D0BD
:1016FC007B683B4A934201D1022304E0032302E0BE
:10170C00012300E000237A6A02F003029200934066
:10171C00FA681343FB602F497B6A9B080233FA6813
:10172C0041F823203B685B6803F48013002B06D040
:10173C002C4B9A682B49BB6913438B6006E0294BF1
:10174C009A68BB69DB43274913408B603B685B6835
:10175C0003F40013002B06D0224BDA682149BB6935
:10176C001343CB6006E01F4BDA68BB69DB431D49B2
:10177C001340CB603B685B6803F40033002B06D04E
:10178C00184B5A681749BB6913434B6006E0154B5D
:10179C005A68BB69DB43134913404B603B685B6879
:1017AC0003F48033002B1FD00E4B1A680D49BB6914
:1017BC0013430B601FE000BF00003210000031101B
:1017CC000000221000002110000012100000111067
:1017DC00001002400000014000080140000C0140D4
:1017EC0000100140000401400B4B1A68BB69DB433D
:1017FC00094913400B607B6A01337B623B681A68B2
:10180C007B6A22FA03F3002B7FF496AE00BF00BF75
:10181C002C37BD4680BC70470004014080B485B0B5
:10182C0000AF78600B467B807B689A687B8813409E
:10183C00002B02D00123FB7301E00023FB73FB7B25
:10184C0018461437BD4680BC704780B483B000AFD7
:10185C0078600B467B8013467B707B78002B03D023
:10186C007A887B681A6103E07B881A047B681A61AA
:10187C0000BF0C37BD4680BC7047000080B586B0F9
:10188C0000AF78607B68002B01D1012372E27B688A
:10189C001B6803F00103002B00F08780924B5B6800
:1018AC0003F00C03042B0CD08F4B5B6803F00C0380
:1018BC00082B12D18C4B5B6803F48033B3F5803F5B
:1018CC000BD1894B1B6803F40033002B6CD07B6865
:1018DC005B68002B68D101234CE27B685B68B3F535
:1018EC00803F06D1804B1B687F4A43F480331360E2
:1018FC002EE07B685B68002B0CD17B4B1B687A4A13
:10190C0023F480331360784B1B68774A23F48023CD
:10191C0013601DE07B685B68B3F5A02F0CD1724B94
:10192C001B68714A43F4802313606F4B1B686E4A2B
:10193C0043F4803313600BE06B4B1B686A4A23F44F
:10194C0080331360684B1B68674A23F48023136051
:10195C007B685B68002B13D0FFF7CCFC386108E088
:10196C00FFF7C8FC02463B69D31A642B01D9032349
:10197C0000E25D4B1B6803F40033002BF0D014E045
:10198C00FFF7B8FC386108E0FFF7B4FC02463B698E
:10199C00D31A642B01D90323ECE1534B1B6803F4DA
:1019AC000033002BF0D100E000BF7B681B6803F014
:1019BC000203002B63D04C4B5B6803F00C03002B31
:1019CC000BD0494B5B6803F00C03082B1CD1464B26
:1019DC005B6803F48033002B16D1434B1B6803F078
:1019EC000203002B05D07B681B69012B01D001235E
:1019FC00C0E13D4B1B6823F0F8027B685B69DB00A0
:101A0C00394913430B603AE07B681B69002B20D0EB
:101A1C00364B01221A60FFF76DFC386108E0FFF7C6
:101A2C0069FC02463B69D31A022B01D90323A1E1BD
:101A3C002D4B1B6803F00203002BF0D02A4B1B68C4
:101A4C0023F0F8027B685B69DB00274913430B60CA
:101A5C0015E0264B00221A60FFF74CFC386108E0B9
:101A6C00FFF748FC02463B69D31A022B01D903232A
:101A7C0080E11D4B1B6803F00203002BF0D17B6847
:101A8C001B6803F00803002B3AD07B689B69002B82
:101A9C0019D0174B01221A60FFF72CFC386108E0B3
:101AAC00FFF728FC02463B69D31A022B01D903230A
:101ABC0060E10D4B5B6A03F00203002BF0D00120B8
:101ACC0000F09CFA1CE00A4B00221A60FFF712FC93
:101ADC0038610FE0FFF70EFC02463B69D31A022B6C
:101AEC0008D9032346E100BF001002400000424227
:101AFC0080044242924B5B6A03F00203002BE9D153
:101B0C007B681B6803F00403002B00F0A680002305
:101B1C00FB758B4BDB6903F08053002B0DD1884B8D
:101B2C00DB69874A43F08053D361854BDB6903F053
:101B3C008053BB60BB680123FB75824B1B6803F4AD
:101B4C008073002B18D17F4B1B687E4A43F4807343
:101B5C001360FFF7CFFB386108E0FFF7CBFB0246C1
:101B6C003B69D31A642B01D9032303E1754B1B6822
:101B7C0003F48073002BF0D07B68DB68012B06D15B
:101B8C006F4B1B6A6E4A43F0010313622DE07B68B6
:101B9C00DB68002B0CD16A4B1B6A694A23F00103EA
:101BAC001362674B1B6A664A23F0040313621CE042
:101BBC007B68DB68052B0CD1614B1B6A604A43F0D8
:101BCC00040313625E4B1B6A5D4A43F0010313620C
:101BDC000BE05B4B1B6A5A4A23F001031362584B10
:101BEC001B6A574A23F0040313627B68DB68002BE3
:101BFC0015D0FFF77FFB38610AE0FFF77BFB02464D
:101C0C003B69D31A41F28832934201D90323B1E0E4
:101C1C004B4B1B6A03F00203002BEED014E0FFF7D2
:101C2C0069FB38610AE0FFF765FB02463B69D31A92
:101C3C0041F28832934201D903239BE0404B1B6A4B
:101C4C0003F00203002BEED1FB7D012B05D13C4BA5
:101C5C00DB693B4A23F08053D3617B68DB69002B43
:101C6C0000F08780364B5B6803F00C03082B61D0C7
:101C7C007B68DB69022B46D1334B00221A60FFF7DD
:101C8C0039FB386108E0FFF735FB02463B69D31A94
:101C9C00022B01D903236DE0294B1B6803F0007361
:101CAC00002BF0D17B681B6AB3F5803F08D1244B25
:101CBC005B6823F400327B689B68214913434B60BB
:101CCC001F4B5B6823F474127B68196A7B685B6A30
:101CDC000B431B4913434B601B4B01221A60FFF74C
:101CEC0009FB386108E0FFF705FB02463B69D31A94
:101CFC00022B01D903233DE0114B1B6803F0007349
:101D0C00002BF0D035E0104B00221A60FFF7F2FAEE
:101D1C00386108E0FFF7EEFA02463B69D31A022B52
:101D2C0001D9032326E0064B1B6803F00073002B3C
:101D3C00F0D11EE07B68DB69012B07D1012319E090
:101D4C000010024000700040600042420B4B5B6888
:101D5C00FB60FB6803F480327B681B6A9A4206D1F5
:101D6C00FB6803F470127B685B6A9A4201D0012312
:101D7C0000E0002318461837BD4680BD0010024015
:101D8C0080B584B000AF786039607B68002B01D1DE
:101D9C000123D0E06A4B1B6803F007033A689A42B0
:101DAC0010D9674B1B6823F0070265493B68134346
:101DBC000B60634B1B6803F007033A689A4201D02F
:101DCC000123B8E07B681B6803F00203002B20D0D2
:101DDC007B681B6803F00403002B05D0594B5B6830
:101DEC00584A43F4E06353607B681B6803F00803B4
:101DFC00002B05D0534B5B68524A43F4605353603D
:101E0C00504B5B6823F0F0027B689B684D49134391
:101E1C004B607B681B6803F00103002B40D07B6890
:101E2C005B68012B07D1474B1B6803F40033002B75
:101E3C0015D101237FE07B685B68022B07D1414BF6
:101E4C001B6803F00073002B09D1012373E03D4B99
:101E5C001B6803F00203002B01D101236BE0394B0B
:101E6C005B6823F003027B685B68364913434B6065
:101E7C00FFF740FAF8600AE0FFF73CFA0246FB680D
:101E8C00D31A41F28832934201D9032353E02D4BEC
:101E9C005B6803F00C027B685B689B009A42EBD199
:101EAC00274B1B6803F007033A689A4210D2244B65
:101EBC001B6823F0070222493B6813430B60204B3D
:101ECC001B6803F007033A689A4201D0012332E001
:101EDC007B681B6803F00403002B08D0194B5B686C
:101EEC0023F4E0627B68DB68164913434B607B6824
:101EFC001B6803F00803002B09D0124B5B6823F41A
:101F0C0060527B681B69DB000E4913434B6000F089
:101F1C0021F802460B4B5B681B0903F00F030A49BF
:101F2C00CB5C22FA03F3094A1360094B1B68184671
:101F3C00FFF79EF9002318461037BD4680BD00BF41
:101F4C0000200240001002406C2800081400002001
:101F5C001800002080B487B000AF0023FB60002382
:101F6C00BB6000237B6100237B6000233B611E4B25
:101F7C005B68FB60FB6803F00C03042B02D0082B9E
:101F8C0003D027E0194B3B6127E0FB689B0C03F067
:101F9C000F03174AD35C7B60FB6803F48033002B80
:101FAC0010D0114B5B685B0C03F00103114AD35C3E
:101FBC00BB607B680D4A03FB02F2BB68B2FBF3F318
:101FCC007B6104E07B680C4A02FB03F37B617B6959
:101FDC003B6102E0054B3B6100BF3B6918461C3777
:101FEC00BD4680BC704700BF0010024000127A0052
:101FFC007C2800088C28000800093D0080B485B0BE
:10200C0000AF78600A4B1B680A4AA2FB03235B0AE9
:10201C007A6802FB03F3FB6000BFFB685A1EFA6090
:10202C00002BF9D100BF00BF1437BD4680BC7047F0
:10203C0014000020D34D621080B582B000AF7860E0
:10204C007B68002B01D1012341E07B6893F83D3084
:10205C00DBB2002B06D17B68002283F83C20786829
:10206C00FFF76AF87B68022283F83D207B681A68C8
:10207C007B6804331946104600F056FA7B6801223F
:10208C0083F846207B68012283F83E207B6801227E
:10209C0083F83F207B68012283F840207B68012273
:1020AC0083F841207B68012283F842207B6801225F
:1020BC0083F843207B68012283F844207B6801224B
:1020CC0083F845207B68012283F83D2000231846C5
:1020DC000837BD4680BD000080B485B000AF786085
:1020EC007B6893F83D30DBB2012B01D0012335E046
:1020FC007B68022283F83D207B681B68DA687B686A
:10210C001B6842F00102DA607B681B68164A934236
:10211C0009D07B681B68B3F1804F04D07B681B68C7
:10212C00124A934211D17B681B689B6803F007032A
:10213C00FB60FB68062B10D07B681B681A687B68F9
:10214C001B6842F001021A6007E07B681B681A6882
:10215C007B681B6842F001021A6000231846143792
:10216C00BD4680BC704700BF002C014000040040FD
:10217C0080B584B000AF78607B681B68DB68FB605F
:10218C007B681B681B69BB60BB6803F00203002BF8
:10219C0020D0FB6803F00203002B1BD07B681B686C
:1021AC006FF002021A617B6801221A777B681B6848
:1021BC009B6903F00303002B03D0786800F098F9B7
:1021CC0005E0786800F08BF9786800F09AF97B6884
:1021DC0000221A77BB6803F00403002B20D0FB68A5
:1021EC0003F00403002B1BD07B681B686FF0040208
:1021FC001A617B6802221A777B681B689B6903F45F
:10220C004073002B03D0786800F072F905E0786811
:10221C0000F065F9786800F074F97B6800221A7791
:10222C00BB6803F00803002B20D0FB6803F0080305
:10223C00002B1BD07B681B686FF008021A617B684F
:10224C0004221A777B681B68DB6903F00303002BFD
:10225C0003D0786800F04CF905E0786800F03FF99D
:10226C00786800F04EF97B6800221A77BB6803F09F
:10227C001003002B20D0FB6803F01003002B1BD0A5
:10228C007B681B686FF010021A617B6808221A7752
:10229C007B681B68DB6903F44073002B03D0786800
:1022AC0000F026F905E0786800F019F9786800F07C
:1022BC0028F97B6800221A77BB6803F00103002B16
:1022CC000CD0FB6803F00103002B07D07B681B6864
:1022DC006FF001021A617868FEF750FCBB6803F0DE
:1022EC008003002B0CD0FB6803F08003002B07D07D
:1022FC007B681B686FF080021A61786800F06FFAD7
:10230C00BB6803F04003002B0CD0FB6803F04003C8
:10231C00002B07D07B681B686FF040021A6178684D
:10232C0000F0F8F8BB6803F02003002B0CD0FB681E
:10233C0003F02003002B07D07B681B686FF0200292
:10234C001A61786800F042FA00BF1037BD4680BDB4
:10235C0080B584B000AF786039600023FB737B6874
:10236C0093F83C30012B01D10223B4E07B680122AD
:10237C0083F83C207B68022283F83D207B681B6835
:10238C009B68BB60BB6823F07703BB60BB6823F41E
:10239C007F43BB607B681B68BA689A603B681B68AC
:1023AC00B3F5005F3ED0B3F5005F00F28780B3F564
:1023BC00805F00F08680B3F5805F7FD8702B1AD0D9
:1023CC00702B7BD8602B50D0602B77D8502B3CD007
:1023DC00502B73D8402B58D0402B6FD8302B64D057
:1023EC00302B6BD8202B60D0202B67D8002B5CD0E7
:1023FC00102B5AD062E07B6818683B6899683B6880
:10240C005A683B68DB6800F06AF97B681B689B685C
:10241C00BB60BB6843F07703BB607B681B68BA6822
:10242C009A604FE07B6818683B6899683B685A680B
:10243C003B68DB6800F053F97B681B689A687B6823
:10244C001B6842F480429A603CE07B6818683B68E9
:10245C0059683B68DB681A4600F0CAF87B681B6851
:10246C005021184600F021F92CE07B6818683B6875
:10247C0059683B68DB681A4600F0E8F87B681B6813
:10248C006021184600F011F91CE07B6818683B6865
:10249C0059683B68DB681A4600F0AAF87B681B6831
:1024AC004021184600F001F90CE07B681A683B6883
:1024BC001B681946104600F0F8F803E00123FB7383
:1024CC0000E000BF7B68012283F83D207B6800227E
:1024DC0083F83C20FB7B18461037BD4680BD80B48A
:1024EC0083B000AF786000BF0C37BD4680BC70472E
:1024FC0080B483B000AF786000BF0C37BD4680BCA1
:10250C00704780B483B000AF786000BF0C37BD4615
:10251C0080BC704780B483B000AF786000BF0C37CC
:10252C00BD4680BC7047000080B485B000AF7860B9
:10253C0039607B681B68FB607B682B4A934207D031
:10254C007B68B3F1804F03D07B68284A934208D153
:10255C00FB6823F07003FB603B685B68FA6813430D
:10256C00FB607B68204A934207D07B68B3F1804FB5
:10257C0003D07B681D4A934208D1FB6823F4407357
:10258C00FB603B68DB68FA681343FB60FB6823F075
:10259C0080023B685B691343FB607B68FA681A60D6
:1025AC003B689A687B68DA623B681A687B689A6257
:1025BC007B680D4A934203D13B681A697B681A63A6
:1025CC007B6801225A617B681B6903F00103002BB5
:1025DC0005D07B681B6923F001027B681A6100BF80
:1025EC001437BD4680BC7047002C014000040040ED
:1025FC0080B487B000AFF860B9607A60FB681B6A82
:10260C007B61FB681B6A23F00102FB681A62FB68A2
:10261C009B693B613B6923F0F0033B617B681B01C9
:10262C003A6913433B617B6923F00A037B617A6946
:10263C00BB6813437B61FB683A699A61FB687A69F2
:10264C001A6200BF1C37BD4680BC704780B487B08F
:10265C0000AFF860B9607A60FB681B6A7B61FB684D
:10266C001B6A23F01002FB681A62FB689B693B61D2
:10267C003B6923F470433B617B681B033A6913434A
:10268C003B617B6923F0A0037B61BB681B017A690A
:10269C0013437B61FB683A699A61FB687A691A6239
:1026AC0000BF1C37BD4680BC704780B485B000AFFE
:1026BC00786039607B689B68FB60FB6823F0700373
:1026CC00FB603A68FB68134343F00703FB607B68CD
:1026DC00FA689A6000BF1437BD4680BC704780B45E
:1026EC0087B000AFF860B9607A603B60FB689B68AC
:1026FC007B617B6923F47F437B613B681A027B68B7
:10270C001A43BB6813437A6913437B61FB687A698C
:10271C009A6000BF1C37BD4680BC704780B485B042
:10272C0000AF786039607B6893F83C30012B01D1A5
:10273C00022341E07B68012283F83C207B68022263
:10274C0083F83D207B681B685B68FB607B681B68BB
:10275C009B68BB60FB6823F07003FB603B681B68E5
:10276C00FA681343FB607B681B68FA685A607B68E5
:10277C001B68144A934209D07B681B68B3F1804FE5
:10278C0004D07B681B68104A93420CD1BB6823F0C1
:10279C008003BB603B685B68BA681343BB607B68B3
:1027AC001B68BA689A607B68012283F83D207B68BD
:1027BC00002283F83C20002318461437BD4680BC09
:1027CC00704700BF002C01400004004080B483B06F
:1027DC0000AF786000BF0C37BD4680BC704780B43A
:1027EC0083B000AF786000BF0C37BD4680BC70472B
:1027FC0003460244934200D1704703F8011BF9E7EA
:10280C0070B500260C4D0D4C641BA410A64209D1CA
:10281C0000F01AF800260A4D0A4C641BA410A642BC
:10282C0005D170BD55F8043B98470136EEE755F8D5
:10283C00043B98470136F2E79028000890280008DE
:10284C009028000894280008F8B500BFF8BC08BC14
:10285C009E467047F8B500BFF8BC08BC9E46704752
:10286C000000000000000000010203040607080934
:10287C0002030405060708090A0B0C0D0E0F1010B5
:04288C000102000045
:04289000310100080A
:042894000D0100082A
:102898000100020004000800000100080002001006
:1028A8000004002000127A0010000000010000005F
:0400000508001205D8
:00000001FF
